:1000000012C019C018C017C016C015C014C013C044
:1000100012C011C010C00FC00EC00DC00CC00BC06C
:100020000AC009C008C011241FBECFE5D4E0DEBF5E
:10003000CDBF02D079C0E4CF8FE387BB80EE84BB15
:100040008FEF81BB20E030E080E090E045E150E0C0
:1000500061E072E0E4E09D9B0BC062BBAFE7B9EAF0
:10006000F3E0A150B040F040E1F700C0000012BA48
:100070009C9B0BC072BBAFE7B9EAF3E0A150B04064
:10008000F040E1F700C0000012BA9B9B0BC0E2BB3E
:10009000AFE7B9EAF3E0A150B040F040E1F700C0AB
:1000A000000012BA2C3331051CF0019620E030E03C
:1000B0008C33910524F04F5F5F4F80E090E0483132
:1000C000510534F020E030E080E090E040E050E086
:1000D000AFEFBEE9F4E2A150B040F040E1F700C05C
:1000E000000045315105B1F481309105B1F4213062
:1000F000310581F462BB04C02130310559F472BB73
:10010000AFE3BEE7F5E0A150B040F040E1F700C03A
:10011000000012BA2F5F3F4F9ECF8031910539F317
:0C0120008330910549F3F6CFF894FFCF2F
:00000001FF
