:1000000012C019C018C017C016C015C014C013C044
:1000100012C011C010C00FC00EC00DC00CC00BC06C
:100020000AC009C008C011241FBECFE5D4E0DEBF5E
:10003000CDBF02D062C0E4CF18BA8EE087BB15BA3C
:1000400014BA12BA11BA13BE12BE81EA8FBD89E08A
:100050008EBD1DBC1CBC17BC16BC1BBC1ABC19BC7D
:1000600018BC12BC89E685BD14BC13BC15BE19BEF4
:1000700080E888B910BE3EC08ABDE7E8F3E1319759
:10008000F1F700C0000001968F3F9105ACF38FEFB0
:100090008ABDE7E8F3E13197F1F700C00000815035
:1000A0008130B1F788BDE7E8F3E13197F1F700C09F
:1000B00000008F5F8F3FB1F788BDE7E8F3E131972C
:1000C000F1F700C0000081508130B1F783BDE7E84F
:1000D000F3E13197F1F700C000008F5F8F3FB1F778
:1000E00083BDE7E8F3E13197F1F700C000008150EC
:0E00F0008130B1F781E090E0C7CFF894FFCFE8
:00000001FF
