:1000000012C019C018C017C016C015C014C013C044
:1000100012C011C010C00FC00EC00DC00CC00BC06C
:100020000AC009C008C011241FBECFE5D4E0DEBF5E
:10003000CDBF02D051C0E4CF87EC88BB87BB15BAD7
:1000400014BA82BB81BB13BE12BE81EA8FBD89E0A8
:100050008EBD1DBC1CBC17BC16BC1BBC1ABC19BC7D
:1000600018BC12BC89E685BD14BC13BC15BE19BEF4
:1000700080E888B910BE1ABC18BC13BC81E088BBEC
:100080002FEB84ED91E0215080409040E1F700C0DB
:10009000000018BA2FEF8EE994E221508040904082
:1000A000E1F700C0000082E082BB2FEB84ED91E01D
:1000B000215080409040E1F700C0000012BA2FEFBD
:1000C0008EE994E2215080409040E1F700C00000AA
:0C00D0001ABC18BC13BC0895F894FFCFB4
:00000001FF
