:1000000012C019C018C017C016C015C014C013C044
:1000100012C011C010C00FC00EC00DC00CC00BC06C
:100020000AC009C008C011241FBECFE5D4E0DEBF5E
:10003000CDBF02D074C0E4CF18BA8EE087BB15BA2A
:1000400014BA12BA11BA13BE12BE81EA8FBD89E08A
:100050008EBD1DBC1CBC17BC16BC1BBC1ABC19BC7D
:1000600018BC12BC89E685BD14BC13BC15BE19BEF4
:1000700080E888B910BE50C08ABD2FE732E342E065
:10008000215030404040E1F700C000000196843B21
:10009000910594F384EB8ABD9FE722E332E091500F
:1000A00020403040E1F700C000008150843699F7CD
:1000B00088BD4FE792E322E0415090402040E1F7B5
:1000C00000C000008F5F843B99F788BD3FE742E3A3
:1000D00092E0315040409040E1F700C00000815074
:1000E000843699F783BD2FE732E342E02150304058
:1000F0004040E1F700C000008F5F843B99F783BD6B
:100100009FE722E332E0915020403040E1F700C009
:1001100000008150843699F784E690E0B8CFF894D7
:02012000FFCF0F
:00000001FF
