:1000000012C019C018C017C016C015C014C013C044
:1000100012C011C010C00FC00EC00DC00CC00BC06C
:100020000AC009C008C011241FBECFE5D4E0DEBF5E
:10003000CDBF02D024C0E4CF18BA8EE087BB15BA7A
:1000400014BA12BA11BA13BE12BE81EA8FBD89E08A
:100050008EBD1DBC1CBC17BC16BC1BBC1ABC19BC7D
:1000600018BC12BC89E685BD14BC13BC15BE19BEF4
:1000700080E888B910BE1ABC18BC13BCFCCFF89439
:02008000FFCFB0
:00000001FF
