:1000000012C019C018C017C016C015C014C013C044
:1000100012C011C010C00FC00EC00DC00CC00BC06C
:100020000AC009C008C011241FBECFE5D4E0DEBF5E
:10003000CDBF02D0A5C0E4CF18BA8EE087BB15BAF9
:1000400014BA87EC82BB11BA13BE12BE81EA8FBD0F
:1000500089E08EBD1DBC1CBC17BC16BC1BBC1ABCE9
:1000600019BC18BC12BC89E685BD14BC13BC15BEF6
:1000700019BE80E888B910BE51EE70E880E490E2C5
:1000800020E138E044E062E05ABD18BC53BD72BBC9
:10009000AFE1EAE0F3E0A150E040F040E1F700C05A
:1000A000000082BBAFE1EAE0F3E0A150E040F040A5
:1000B000E1F700C0000092BBAFE1EAE0F3E0A1503D
:1000C000E040F040E1F700C0000022BBAFE1EAE011
:1000D000F3E0A150E040F040E1F700C0000032BB87
:1000E000AFE1EAE0F3E0A150E040F040E1F700C00A
:1000F000000042BBAFE1EAE0F3E0A150E040F04095
:10010000E1F700C0000062BBAFE1EAE0F3E0A1501C
:10011000E040F040E1F700C0000042BBAFE1EAE0A0
:10012000F3E0A150E040F040E1F700C0000032BB36
:10013000AFE1EAE0F3E0A150E040F040E1F700C0B9
:10014000000022BBAFE1EAE0F3E0A150E040F04064
:10015000E1F700C0000092BBAFE1EAE0F3E0A1509C
:10016000E040F040E1F700C0000082BBAFE1EAE010
:10017000F3E0A150E040F040E1F700C0000084CF80
:04018000F894FFCF21
:00000001FF
