:1000000012C019C018C017C016C015C014C013C044
:1000100012C011C010C00FC00EC00DC00CC00BC06C
:100020000AC009C008C011241FBECFE5D4E0DEBF5E
:10003000CDBF02D075C0E4CF17BA8FE384BB8FEF7A
:1000400081BBFEE7E0E37DE669E753E34BE53FE58F
:1000500020E79FE78BE7F2BBAFE7B9EAC3E0A15027
:10006000B040C040E1F700C00000E2BBAFE7B9EA32
:10007000C3E0A150B040C040E1F700C0000072BB37
:10008000AFE7B9EAC3E0A150B040C040E1F700C01B
:10009000000062BBAFE7B9EAC3E0A150B040C04086
:1000A000E1F700C0000052BBAFE7B9EAC3E0A150DE
:1000B000B040C040E1F700C0000042BBAFE7B9EA82
:1000C000C3E0A150B040C040E1F700C0000032BB27
:1000D000AFE7B9EAC3E0A150B040C040E1F700C0CB
:1000E000000022BBAFE7B9EAC3E0A150B040C04076
:1000F000E1F700C0000092BBAFE7B9EAC3E0A1504E
:10010000B040C040E1F700C0000082BBAFE7B9EAF1
:10011000C3E0A150B040C040E1F700C000009BCF59
:04012000F894FFCF81
:00000001FF
