:1000000012C024C023C022C021C020C01FC01EC0F7
:100010001DC01CC01BC01AC019C018C017C016C014
:1000200015C014C013C011241FBECFE5D4E0DEBF3D
:10003000CDBF10E0A0E6B0E0EAE2F1E002C005903A
:100040000D92A236B107D9F702D06DC0D9CF8FE398
:1000500087BB80EE84BB8FEF81BB92E084E028E019
:1000600030E140E251E098BBEFE5FAEE3197F1F76D
:1000700000C0000088BBEFE5FAEE3197F1F700C051
:10008000000028BBEFE5FAEE3197F1F700C0000061
:1000900038BBEFE5FAEE3197F1F700C0000048BB3E
:1000A000EFE5FAEE3197F1F700C0000038BBEFE55D
:1000B000FAEE3197F1F700C0000028BBEFE5FAEE49
:1000C0003197F1F700C0000088BBEFE5FAEE3197F9
:1000D000F1F700C000009D9B0BC052BBFFE769EA2F
:1000E00073E0F15060407040E1F700C0000012BAC8
:1000F0009C9B0BC092BBEFE7F9EA63E0E150F04054
:100100006040E1F700C0000012BA9B9BACCF82BBFD
:100110007FE7E9EAF3E07150E040F040E1F700C02A
:0A012000000012BAA0CFF894FFCF40
:02012A0064006F
:00000001FF
