:1000000012C019C018C017C016C015C014C013C044
:1000100012C011C010C00FC00EC00DC00CC00BC06C
:100020000AC009C008C011241FBECFE5D4E0DEBF5E
:10003000CDBF02D075C0E4CF17BA8FE384BB8FEF7A
:1000400081BBFEE7E0E37DE669E753E34BE53FE58F
:1000500020E79FE78BE7F2BBAFEFBEE9C4E2A15018
:10006000B040C040E1F700C00000E2BBAFEFBEE926
:10007000C4E2A150B040C040E1F700C0000072BB34
:10008000AFEFBEE9C4E2A150B040C040E1F700C00C
:10009000000062BBAFEFBEE9C4E2A150B040C04077
:1000A000E1F700C0000052BBAFEFBEE9C4E2A150CF
:1000B000B040C040E1F700C0000042BBAFEFBEE976
:1000C000C4E2A150B040C040E1F700C0000032BB24
:1000D000AFEFBEE9C4E2A150B040C040E1F700C0BC
:1000E000000022BBAFEFBEE9C4E2A150B040C04067
:1000F000E1F700C0000092BBAFEFBEE9C4E2A1503F
:10010000B040C040E1F700C0000082BBAFEFBEE9E5
:10011000C4E2A150B040C040E1F700C000009BCF56
:04012000F894FFCF81
:00000001FF
