:1000000012C019C018C017C016C015C014C013C044
:1000100012C011C010C00FC00EC00DC00CC00BC06C
:100020000AC009C008C011241FBECFE5D4E0DEBF5E
:10003000CDBF02D05EC0E4CF8FE387BB80EE84BB30
:1000400032E084E098E020E140E238BB5FE769EA13
:1000500073E0515060407040E1F700C0000088BB81
:100060005FE769EA73E0515060407040E1F700C01B
:10007000000098BB5FE769EA73E051506040704050
:10008000E1F700C0000028BB5FE769EA73E0515068
:1000900060407040E1F700C0000048BB5FE769EADC
:1000A00073E0515060407040E1F700C0000028BB91
:1000B0005FE769EA73E0515060407040E1F700C0CB
:1000C000000098BB5FE769EA73E051506040704000
:1000D000E1F700C0000088BB5FE769EA73E05150B8
:1000E00060407040E1F700C000009C9BAECF18BAA2
:0600F000ACCFF894FFCF35
:00000001FF
