:1000000012C019C018C017C016C015C014C013C044
:1000100012C011C010C00FC00EC00DC00CC00BC06C
:100020000AC009C008C011241FBECFE5D4E0DEBF5E
:10003000CDBF02D0EEC0E4CF17BA8FE384BB8FEF01
:1000400081BB8EE12FE3A0E3FDE291E0E9E372E3FF
:100050006BE15FE141E33BE315BA82BBBFE3C9E17A
:10006000D1E0B150C040D040E1F700C0000025BB56
:1000700012BABFEBC4EDD1E0B150C040D040E1F7BF
:1000800000C0000015BA82BBBFE3C9E1D1E0B150A6
:10009000C040D040E1F700C00000A5BB12BABFEBE2
:1000A000C4EDD1E0B150C040D040E1F700C0000045
:1000B00015BA82BBBFE3C9E1D1E0B150C040D04026
:1000C000E1F700C00000F5BB92BBBFEBC4EDD1E08F
:1000D000B150C040D040E1F700C0000015BA82BB6B
:1000E000BFE3C9E1D1E0B150C040D040E1F700C06A
:1000F0000000E5BB92BBBFEBC4EDD1E0B150C04006
:10010000D040E1F700C0000015BA82BBBFE3C9E1EF
:10011000D1E0B150C040D040E1F700C0000075BB55
:1001200092BBBFEBC4EDD1E0B150C040D040E1F78D
:1001300000C0000015BA82BBBFE3C9E1D1E0B150F5
:10014000C040D040E1F700C0000065BB92BBBFEBF0
:10015000C4EDD1E0B150C040D040E1F700C0000094
:1001600015BA82BBBFE3C9E1D1E0B150C040D04075
:10017000E1F700C0000055BB92BBBFEBC4EDD1E07E
:10018000B150C040D040E1F700C0000015BA82BBBA
:10019000BFE3C9E1D1E0B150C040D040E1F700C0B9
:1001A000000045BB12BABFEBC4EDD1E0B150C04076
:1001B000D040E1F700C0000015BA82BBBFE3C9E13F
:1001C000D1E0B150C040D040E1F700C0000025BBF5
:1001D00092BBBFEBC4EDD1E0B150C040D040E1F7DD
:1001E00000C0000015BA82BBBFE3C9E1D1E0B15045
:1001F000C040D040E1F700C0000035BB92BBBFEB70
:10020000C4EDD1E0B150C040D040E1F700C00000E3
:0602100023CFF894FFCF9C
:00000001FF
