:1000000012C019C018C017C016C015C014C013C044
:1000100012C011C010C00FC00EC00DC00CC00BC06C
:100020000AC009C008C011241FBECFE5D4E0DEBF5E
:10003000CDBF02D0D5C1E4CF8EE087BB14BA8FEF1D
:1000400081BB13BE12BE81EA8FBD89E08EBD1DBC8F
:100050001CBC17BC16BC1BBC1ABC19BC18BC12BCFF
:1000600089E685BD14BC13BC15BE19BE80E888B9ED
:1000700010BE2FEF6EE770E3EDE6F9E7A3E3BBE513
:10008000CFE5D0E71FE70BE731E04EEF8EEFD82E3C
:10009000989B0BC09A9B09C08AB58F5F8ABD8FE27F
:1000A00095E70197F1F700C00000999B0BC09A9B60
:1000B00009C08AB581508ABD8FE295E70197F1F7B3
:1000C00000C00000989B0BC09B9B09C088B58F5F48
:1000D00088BD8FE295E70197F1F700C00000999B7A
:1000E0000BC09B9B09C088B5815088BD8FE295E706
:1000F0000197F1F700C00000989B0BC09C9B09C0C2
:1001000083B58F5F83BD8FE295E70197F1F700C05C
:100110000000999B0BC09C9B09C083B5815083BD97
:100120008FE295E70197F1F700C00000989B05C0AA
:10013000999B03C01ABC18BC13BC9B9B05C09C9B1D
:1001400003C02ABD28BD23BDEAB488B5F3B490E04E
:100150008E0D911D8F0D911D0A975CF462BB9FE778
:1001600059EA83E0915050408040E1F700C0000020
:1001700012BAEAB488B5F3B490E08E0D911D8F0DDC
:10018000911D0B97B4F0EAB488B5F3B490E08E0DEE
:10019000911D8F0D911D843691055CF472BB9FE714
:1001A00059EA83E0915050408040E1F700C00000E0
:1001B00012BAEAB488B5F3B490E08E0D911D8F0D9C
:1001C000911D85369105B4F0EAB488B5F3B490E09A
:1001D0008E0D911D8F0D911D883C91055CF4E2BB45
:1001E0009FE759EA83E0915050408040E1F700C01A
:1001F000000012BAEAB488B5F3B490E08E0D911DF8
:100200008F0D911D893C9105B4F0EAB488B5F3B423
:1002100090E08E0D911D8F0D911D8C3291405CF4FC
:10022000F2BB8FE799EA53E0815090405040E1F7EC
:1002300000C0000012BAEAB488B5F3B490E08E0DA5
:10024000911D8F0D911D8D329140B4F0EAB488B5A7
:10025000F3B490E08E0D911D8F0D911D803991406A
:100260005CF4A2BB8FE799EA53E081509040504084
:10027000E1F700C0000012BAEAB488B5F3B490E028
:100280008E0D911D8F0D911D81399140B4F0EAB40E
:1002900088B5F3B490E08E0D911D8F0D911D843FB4
:1002A00091405CF4B2BB8FE799EA53E081509040F3
:1002B0005040E1F700C0000012BAEAB488B5F3B4C8
:1002C00090E08E0D911D8F0D911D853F9140B4F0F2
:1002D000EAB488B5F3B490E08E0D911D8F0D911D99
:1002E000883592405CF4C2BB8FE799EA53E08150B5
:1002F00090405040E1F700C0000012BAEAB488B55F
:10030000F3B490E08E0D911D8F0D911D89359240B3
:10031000B4F0EAB488B5F3B490E08E0D911D8F0D62
:10032000911D8A3892405CF4D2BB8FE799EA53E082
:10033000815090405040E1F700C0000012BAEAB48A
:1003400088B5F3B490E08E0D911D8F0D911D8B3803
:100350009240B4F0EAB488B5F3B490E08E0D911DEC
:100360008F0D911D8C3B92405CF412BB8FE799EA94
:1003700053E0815090405040E1F700C0000012BAB5
:10038000EAB488B5F3B490E08E0D911D8F0D911DE8
:100390008D3B92405CF002BB8FE799EA53E08150BD
:1003A00090405040E1F700C0000012BA8AB58111B8
:1003B00001C03ABD88B5811101C038BD83B5811136
:1003C00001C033BD8AB58F3F09F44ABD88B58F3F60
:1003D00009F448BD83B58F3F09F05ACED3BC58CE3F
:0403E000F894FFCFBF
:00000001FF
