:1000000012C019C018C017C016C015C014C013C044
:1000100012C011C010C00FC00EC00DC00CC00BC06C
:100020000AC009C008C011241FBECFE5D4E0DEBF5E
:10003000CDBF02D05AC0E4CF8FE387BB80EE84BB34
:100040008FEF81BB82E082BB2FEB50EB67E021504A
:1000500050406040E1F700C0000012BA91E022E099
:1000600034E045E087E09D9B0BC092BB7FE759EAF7
:1000700063E0715050406040E1F700C0000012BAE8
:100080009C9B0BC022BB7FE759EA63E07150504054
:100090006040E1F700C0000012BA9B9B0BC032BB6E
:1000A0007FE759EA63E0715050406040E1F700C0DB
:1000B000000012BA9A9B0BC042BB7FE759EA63E08B
:1000C000715050406040E1F700C0000012BA999BA7
:1000D000CACF82BB7FE759EA63E07150504060406D
:0E00E000E1F700C0000012BABECFF894FFCFC7
:00000001FF
