:1000000012C019C018C017C016C015C014C013C044
:1000100012C011C010C00FC00EC00DC00CC00BC06C
:100020000AC009C008C011241FBECFE5D4E0DEBF5E
:10003000CDBF02D0BFC0E4CF8FE387BB8FE784BBC7
:100040008FEF81BB91E030E840E480E222E054E0B1
:1000500068E070E118BA98BBEFE2F5E73197F1F785
:1000600000C0000018BA32BBEFE2F5E73197F1F7B4
:1000700000C0000042BBEFE2F5E73197F1F700C0A6
:10008000000082BBEFE2F5E73197F1F700C0000016
:1000900012BA28BBEFE2F5E73197F1F700C0000094
:1000A00058BBEFE2F5E73197F1F700C0000068BBFD
:1000B000EFE2F5E73197F1F700C0000078BBEFE21F
:1000C000F5E73197F1F700C0000088BBEFE2F5E7F4
:1000D0003197F1F700C0000018BAEFE2F5E7319769
:1000E000F1F700C0000088BBEFE2F5E73197F1F7C8
:1000F00000C0000078BBEFE2F5E73197F1F700C0F0
:10010000000068BBEFE2F5E73197F1F700C00000AF
:1001100058BBEFE2F5E73197F1F700C0000028BBCC
:10012000EFE2F5E73197F1F700C0000012BA82BBA9
:10013000EFE2F5E73197F1F700C0000042BBEFE2D4
:10014000F5E73197F1F700C0000032BBEFE2F5E7C9
:100150003197F1F700C0000012BA98BBEFE2F5E763
:100160003197F1F700C0000018BA989B0AC098BBFD
:10017000FFEBA9EAEDE1F150A040E040E1F700C05B
:100180000000999B0AC028BBFFEBA9EAEDE1F15002
:10019000A040E040E1F700C000009B9B5BCF88BB24
:1001A000FFEBA9EAEDE1F150A040E040E1F700C02B
:0801B000000050CFF894FFCFCE
:00000001FF
