:1000000012C019C018C017C016C015C014C013C044
:1000100012C011C010C00FC00EC00DC00CC00BC06C
:100020000AC009C008C011241FBECFE5D4E0DEBF5E
:10003000CDBF02D04CC0E4CF8FE387BB80EE84BB42
:100040008FEF81BB81E082BB2FE749EA53E021506B
:1000500040405040E1F700C0000012BA91E022E0B9
:1000600034E085E09D9B0BC092BB6FE749EA53E00B
:10007000615040405040E1F700C0000012BA9C9B24
:100080000BC022BB6FE749EA53E06150404050404B
:10009000E1F700C0000012BA9B9B0BC032BB6FE7B8
:1000A00049EA53E0615040405040E1F700C0000091
:1000B00012BA9A9BD7CF82BB6FE749EA53E06150EF
:1000C00040405040E1F700C0000012BACBCFF89496
:0200D000FFCF60
:00000001FF
